:0400000057EF00F0C6
:100008002B002B002B002B002B002B002B002B0090
:100018002B002B0081042B002B002B002B002B0026
:100028002B002B002B002B002B002B002B002B0070
:100038002B002B002B002B002B002B002B00220465
:100048002B002B002B002B002B002B002B002B0050
:100058002B002B002B002B002B002B002B002B0040
:100068002B002B002B002B002B002B002B002B0030
:100078002B002B002B002B002B002B002B002B0020
:100088002B002B002B002B002B002B002B002B0010
:100098002B002B002B002B002B002B002B002B0000
:0A00A8002B002B00FF00BBEF08F057
:10100000000006500118D8B408EF08F00AEF08F005
:1010100017EF08F00650D8B410EF08F013EF08F0FF
:10102000010E14EF08F0000E066E010E096E055059
:101030000218D8B41EEF08F020EF08F02DEF08F0EA
:101040000550D8B426EF08F029EF08F0010E2AEF7A
:1010500008F0000E056E010E086E04500318D8B497
:1010600034EF08F036EF08F043EF08F00450D8B43E
:101070003CEF08F03FEF08F0010E40EF08F0000EE3
:10108000046E010E076E12003901A39FB20EB66EF8
:101090000150D8B44EEF08F051EF08F0010E52EFB6
:1010A00008F0000E016E0D060D50D8A45AEF08F09E
:1010B0005CEF08F07FEF08F00250D8B462EF08F060
:1010C00065EF08F0010E66EF08F0000E026E0A0EE2
:1010D0000D6E0E060E50D8A470EF08F072EF08F0F7
:1010E0007FEF08F00350D8B478EF08F07BEF08F0FA
:1010F000010E7CEF08F0000E036E0A0E0E6E11005A
:10110000000EC26E000E3A01406F000EBA6E000E65
:10111000C36E000E506F000EBB6E12EC09F0F0ECC7
:1011200008F0D8EC08F00FEC09F0BA9E01EC08F0DA
:101130000850D8B49EEF08F0A0EF08F0B1EF08F027
:10114000BAAEA5EF08F0A9EF08F00C6A0C2AAAEFD6
:1011500008F00C6A0C320C32BA500C187F0B0C18C9
:10116000BA6E000E096E000E086E000E076E96EF46
:1011700008F057EF00F0280EF66E120EF76E000E14
:10118000F86E09006F00D4FF0DF009006F00D4FF66
:101190000EF000EE01F0090EEE6AE806FDE1080E21
:1011A000D56E000ED66E000ED76E000180EF08F0EF
:1011B0003E01F89FF89DF899F851F30B0409F86F78
:1011C000F98FF99DF99BF9913F0EFF13F151C00B77
:1011D0000209F16F390191853E01F88FF881120003
:1011E000B89EF00EB816B898B9501F0BA009B96E8A
:1011F000B950F00B0609B96EB20EB66EB88E390151
:10120000938F12003901A195000E0B6E000E0A6E2D
:101210003E01F051EF510000000000001100D29A91
:0A122000D28E1200D29E12000A0ABC
:020000040030CA
:0A0000008CFFFFFFFFFFFFFFFFFF73
:00000001FF
